{
  "_format": "hh-sol-artifact-1",
  "contractName": "VerifySignature",
  "sourceName": "contracts/verify_signature.sol",
  "abi": [
    {
      "inputs": [
        {
          "internalType": "bytes32",
          "name": "_messageHash",
          "type": "bytes32"
        }
      ],
      "name": "getEthSignedMessageHash",
      "outputs": [
        {
          "internalType": "bytes32",
          "name": "",
          "type": "bytes32"
        }
      ],
      "stateMutability": "pure",
      "type": "function"
    },
    {
      "inputs": [
        {
          "internalType": "string",
          "name": "_message",
          "type": "string"
        },
        {
          "internalType": "address",
          "name": "_to",
          "type": "address"
        },
        {
          "internalType": "uint256",
          "name": "_amount",
          "type": "uint256"
        },
        {
          "internalType": "uint256",
          "name": "_nonce",
          "type": "uint256"
        }
      ],
      "name": "getMessageHash",
      "outputs": [
        {
          "internalType": "bytes32",
          "name": "",
          "type": "bytes32"
        }
      ],
      "stateMutability": "pure",
      "type": "function"
    },
    {
      "inputs": [
        {
          "internalType": "bytes32",
          "name": "_ethSignedMessageHash",
          "type": "bytes32"
        },
        {
          "internalType": "bytes",
          "name": "_sig",
          "type": "bytes"
        }
      ],
      "name": "recover",
      "outputs": [
        {
          "internalType": "address",
          "name": "",
          "type": "address"
        }
      ],
      "stateMutability": "pure",
      "type": "function"
    },
    {
      "inputs": [
        {
          "internalType": "address",
          "name": "_signer",
          "type": "address"
        },
        {
          "internalType": "string",
          "name": "_message",
          "type": "string"
        },
        {
          "internalType": "address",
          "name": "_to",
          "type": "address"
        },
        {
          "internalType": "uint256",
          "name": "_amount",
          "type": "uint256"
        },
        {
          "internalType": "uint256",
          "name": "_nonce",
          "type": "uint256"
        },
        {
          "internalType": "bytes",
          "name": "_sig",
          "type": "bytes"
        }
      ],
      "name": "verify",
      "outputs": [
        {
          "internalType": "bool",
          "name": "",
          "type": "bool"
        }
      ],
      "stateMutability": "pure",
      "type": "function"
    }
  ],
  "bytecode": "0x608060405234801561001057600080fd5b50610aa0806100206000396000f3fe608060405234801561001057600080fd5b506004361061004c5760003560e01c806319045a2514610051578063bcfd5b8b14610081578063c97a4035146100b1578063fa540801146100e1575b600080fd5b61006b60048036038101906100669190610445565b610111565b60405161007891906104e2565b60405180910390f35b61009b60048036038101906100969190610600565b610180565b6040516100a891906106e0565b60405180910390f35b6100cb60048036038101906100c691906106fb565b6101e4565b6040516100d8919061078d565b60405180910390f35b6100fb60048036038101906100f691906107a8565b61021d565b604051610108919061078d565b60405180910390f35b6000806000806101208561024d565b9250925092506001868285856040516000815260200160405260405161014994939291906107f1565b6020604051602081039080840390855afa15801561016b573d6000803e3d6000fd5b50505060206040510351935050505092915050565b60008061018f878787876101e4565b9050600061019c8261021d565b90508873ffffffffffffffffffffffffffffffffffffffff166101bf8286610111565b73ffffffffffffffffffffffffffffffffffffffff1614925050509695505050505050565b6000848484846040516020016101fd9493929190610910565b604051602081830303815290604052805190602001209050949350505050565b60008160405160200161023091906109c7565b604051602081830303815290604052805190602001209050919050565b60008060006041845114610296576040517f08c379a000000000000000000000000000000000000000000000000000000000815260040161028d90610a4a565b60405180910390fd5b6020840151925060408401519150606084015160001a90509193909250565b6000604051905090565b600080fd5b600080fd5b6000819050919050565b6102dc816102c9565b81146102e757600080fd5b50565b6000813590506102f9816102d3565b92915050565b600080fd5b600080fd5b6000601f19601f8301169050919050565b7f4e487b7100000000000000000000000000000000000000000000000000000000600052604160045260246000fd5b61035282610309565b810181811067ffffffffffffffff821117156103715761037061031a565b5b80604052505050565b60006103846102b5565b90506103908282610349565b919050565b600067ffffffffffffffff8211156103b0576103af61031a565b5b6103b982610309565b9050602081019050919050565b82818337600083830152505050565b60006103e86103e384610395565b61037a565b90508281526020810184848401111561040457610403610304565b5b61040f8482856103c6565b509392505050565b600082601f83011261042c5761042b6102ff565b5b813561043c8482602086016103d5565b91505092915050565b6000806040838503121561045c5761045b6102bf565b5b600061046a858286016102ea565b925050602083013567ffffffffffffffff81111561048b5761048a6102c4565b5b61049785828601610417565b9150509250929050565b600073ffffffffffffffffffffffffffffffffffffffff82169050919050565b60006104cc826104a1565b9050919050565b6104dc816104c1565b82525050565b60006020820190506104f760008301846104d3565b92915050565b610506816104c1565b811461051157600080fd5b50565b600081359050610523816104fd565b92915050565b600067ffffffffffffffff8211156105445761054361031a565b5b61054d82610309565b9050602081019050919050565b600061056d61056884610529565b61037a565b90508281526020810184848401111561058957610588610304565b5b6105948482856103c6565b509392505050565b600082601f8301126105b1576105b06102ff565b5b81356105c184826020860161055a565b91505092915050565b6000819050919050565b6105dd816105ca565b81146105e857600080fd5b50565b6000813590506105fa816105d4565b92915050565b60008060008060008060c0878903121561061d5761061c6102bf565b5b600061062b89828a01610514565b965050602087013567ffffffffffffffff81111561064c5761064b6102c4565b5b61065889828a0161059c565b955050604061066989828a01610514565b945050606061067a89828a016105eb565b935050608061068b89828a016105eb565b92505060a087013567ffffffffffffffff8111156106ac576106ab6102c4565b5b6106b889828a01610417565b9150509295509295509295565b60008115159050919050565b6106da816106c5565b82525050565b60006020820190506106f560008301846106d1565b92915050565b60008060008060808587031215610715576107146102bf565b5b600085013567ffffffffffffffff811115610733576107326102c4565b5b61073f8782880161059c565b945050602061075087828801610514565b9350506040610761878288016105eb565b9250506060610772878288016105eb565b91505092959194509250565b610787816102c9565b82525050565b60006020820190506107a2600083018461077e565b92915050565b6000602082840312156107be576107bd6102bf565b5b60006107cc848285016102ea565b91505092915050565b600060ff82169050919050565b6107eb816107d5565b82525050565b6000608082019050610806600083018761077e565b61081360208301866107e2565b610820604083018561077e565b61082d606083018461077e565b95945050505050565b600081519050919050565b600081905092915050565b60005b8381101561086a57808201518184015260208101905061084f565b60008484015250505050565b600061088182610836565b61088b8185610841565b935061089b81856020860161084c565b80840191505092915050565b60008160601b9050919050565b60006108bf826108a7565b9050919050565b60006108d1826108b4565b9050919050565b6108e96108e4826104c1565b6108c6565b82525050565b6000819050919050565b61090a610905826105ca565b6108ef565b82525050565b600061091c8287610876565b915061092882866108d8565b60148201915061093882856108f9565b60208201915061094882846108f9565b60208201915081905095945050505050565b7f19457468657265756d205369676e6564204d6573736167653a0a333200000000600082015250565b6000610990601c83610841565b915061099b8261095a565b601c82019050919050565b6000819050919050565b6109c16109bc826102c9565b6109a6565b82525050565b60006109d282610983565b91506109de82846109b0565b60208201915081905092915050565b600082825260208201905092915050565b7f696e76616c6964207369676e6174757265206c656e6774680000000000000000600082015250565b6000610a346018836109ed565b9150610a3f826109fe565b602082019050919050565b60006020820190508181036000830152610a6381610a27565b905091905056fea2646970667358221220d872c9f9bd9a3b093dcbacac8d37bd241c74451695f1d56729af72ade71eb50f64736f6c63430008120033",
  "linkReferences": {},
  "deployedLinkReferences": {}
}